:100000000C9434000C9451000C9451000C94510049
:100010000C9451000C9451000C9451000C9451001C
:100020000C9451000C9451000C9451000C9451000C
:100030000C9451000C9451000C94CB060C9451007C
:100040000C9451000C9451000C9484050C945100B4
:100050000C9451000C9451000C9451000C945100DC
:100060000C9451000C94510011241FBECFEFD8E026
:10007000DEBFCDBF12E0A0E0B1E0E4E4F2E102C0F7
:1000800005900D92A43BB107D9F712E0A4EBB2E0C2
:1000900001C01D92AB3FB107E1F70E9455040C94DB
:1000A00020090C940000A0E2B0E0E9E5F0E00C9437
:1000B000E90869837A838B839C832D833E834F83F6
:1000C0005887CE010196BE01675F7F4F0E942303D0
:1000D000CE010596BE016F5E7F4F0E942303998576
:1000E000923088F089898230C8F0943019F48230D7
:1000F00051F404C0843029F4923081F48CEA91E008
:10010000C6C0923049F420E09A858A89981321E08C
:100110002A87CE010996BBC0823049F420E09A8537
:100120008A89981321E02A8BCE014196B0C02D8494
:100130003E844F8458886D887E888F88988CEE2402
:10014000FF248701AA24BB24650140E050E060E061
:1001500070E0E0E0F0E0C10181709070892BE9F07F
:10016000E60CF71C081D191D9A01AB012A0D3B1D59
:100170004C1D5D1D80E090E0A0E0B0E0E614F704C7
:100180000805190520F481E090E0A0E0B0E0BA0194
:10019000A901480F591F6A1F7B1FAA0CBB1CCC1C4E
:1001A000DD1C97FE08C081E090E0A0E0B0E0A82A46
:1001B000B92ACA2ADB2A3196E032F10549F0660CE9
:1001C000771C881C991C5694479437942794C3CF66
:1001D000FA85EA892B893C898B859C85280F391FF4
:1001E0002E5F3F4F17C0CA0181709070892B61F05C
:1001F00016950795F794E79480E090E0A0E0B0E8CA
:10020000E82AF92A0A2B1B2B76956795579547956F
:100210002F5F3F4F77FDE7CF0CC0440F551F661F80
:10022000771F17FD4160EE0CFF1C001F111F2150AE
:100230003040403090E0590790E0690790E479073A
:1002400060F32B8F3C8FDB01CA018F779070A07019
:10025000B07080349105A105B10561F447FD0AC075
:10026000E114F1040105110529F0405C5F4F6F4F67
:100270007F4F40781A8EFE1711F081E08A8F4D8FE4
:100280005E8F6F8F78A383E0898FCE0149960E949D
:100290004E02A096E2E10C940509A8E0B0E0E3E587
:1002A000F1E00C94F2089B01AC0183E08983DA0150
:1002B000C9018827B7FD83959927AA27BB27B82EA0
:1002C000211531054105510519F482E089833AC0B1
:1002D0008823A9F0203080E0380780E0480780E8D4
:1002E000580729F460E070E080E09FEC30C0EE2415
:1002F000FF248701E21AF30A040B150B02C07901EF
:100300008A018EE1C82ED12CDC82CB82ED82FE8266
:100310000F831887C801B7010E94FF0101971816C3
:10032000190684F4082E04C0EE0CFF1C001F111FD8
:100330000A94D2F7ED82FE820F831887C81AD90A71
:10034000DC82CB82BA82CE0101960E944E022896B0
:10035000E9E00C940E09ACE0B0E0E1EBF1E00C94C4
:10036000F90869837A838B839C83CE010196BE0151
:100370006B5F7F4F0E9423038D81823061F1823059
:1003800050F1843021F48E81882351F12EC02F81C9
:10039000388537FD20C06E812F3131051CF0662372
:1003A000F9F023C08EE190E0821B930B29853A85FA
:1003B0004B855C8504C056954795379527958A955A
:1003C000D2F76623B1F050954095309521953F4F77
:1003D0004F4F5F4F0EC020E030E040E050E009C0DA
:1003E0002FEF3FEF4FEF5FE704C020E030E040E049
:1003F00050E8B901CA012C96E2E00C941509EF927D
:10040000FF920F931F937B018C0180E0E81680E040
:10041000F80681E0080780E0180788F48FEFE816F7
:10042000F1040105110531F028F088E090E0A0E02A
:10043000B0E017C080E090E0A0E0B0E012C080E043
:10044000E81680E0F80680E0080781E0180728F049
:1004500088E190E0A0E0B0E004C080E190E0A0E09E
:10046000B0E020E230E040E050E0281B390B4A0BBE
:100470005B0B04C016950795F794E7948A95D2F71D
:10048000F701EC54FE4F8081281B310941095109C5
:10049000C9011F910F91FF90EF900895DF92EF92A5
:1004A000FF920F931F93FC01E480F5800681178172
:1004B000D1808081823048F480E090E0A0E1B0E01B
:1004C000E82AF92A0A2B1B2BA5C0843009F49FC007
:1004D000823021F4EE24FF24870105C0E114F104E9
:1004E0000105110519F4E0E0F0E096C06281738126
:1004F0009FEF623879070CF05BC022E83FEF261BC4
:10050000370B2A3131052CF020E030E040E050E09C
:100510002AC0B801A701022E04C0769567955795A9
:1005200047950A94D2F781E090E0A0E0B0E004C0E3
:10053000880F991FAA1FBB1F2A95D2F70197A109FF
:10054000B1098E219F21A023B1230097A105B105F8
:1005500021F081E090E0A0E0B0E09A01AB01282B0F
:10056000392B4A2B5B2BDA01C9018F779070A07071
:10057000B07080349105A105B10539F427FF09C099
:10058000205C3F4F4F4F5F4F04C0215C3F4F4F4FA8
:100590005F4FE0E0F0E02030A0E03A07A0E04A073B
:1005A000A0E45A0710F0E1E0F0E079018A0127C0E9
:1005B0006038710564F5FB01E158FF4FD801C701B0
:1005C0008F779070A070B07080349105A105B1054F
:1005D00039F4E7FE0DC080E490E0A0E0B0E004C094
:1005E0008FE390E0A0E0B0E0E80EF91E0A1F1B1FA9
:1005F00017FF05C016950795F794E794319687E0A5
:1006000016950795F794E7948A95D1F705C0EE24DF
:10061000FF248701EFEFF0E06E2F6795662767955F
:10062000902F9F77D794DD24D7948E2F8695492FCE
:10063000462B582F5D29B701CA011F910F91FF90DA
:10064000EF90DF900895FC01DB0140815181228110
:10065000622F6F7770E0221F2227221F9381892F3C
:10066000880F822B282F30E0991F9927991F119608
:100670009C93119721153105A9F541155105610587
:10068000710511F482E037C082E89FEF13969C93C6
:100690008E9312979A01AB0167E0220F331F441F1C
:1006A000551F6A95D1F783E08C930DC0220F331F3D
:1006B000441F551F12968D919C9113970197139685
:1006C0009C938E931297203080E0380780E0480793
:1006D00080E4580758F314962D933D934D935C9303
:1006E000179708952F3F310579F44115510561059C
:1006F000710519F484E08C93089564FF03C081E0D0
:100700008C9312C01C9210C02F57304013963C930C
:100710002E93129783E08C9387E0440F551F661F3A
:10072000771F8A95D1F7706414964D935D936D93FE
:100730007C93179708951F93CF93DF93162FEC01A7
:1007400040E050E060E0E12FF0E031971FC0C901C8
:10075000880F991F220F331F220F331F220F331FC1
:10076000280F391F7F5F872F90E08A179B077CF344
:10077000899190E0C097DC012A9FC0012B9F900DCA
:100780003A9F900D1124480F591F6F5F611738F47D
:1007900021E030E070E0DF01A61BB109E4CFCA011F
:1007A000DF91CF911F910895AF92BF92CF92DF92C8
:1007B000EF92FF920F931F93DF93CF93CDB7DEB7E6
:1007C000C054D0400FB6F894DEBF0FBECDBF8C0131
:1007D00097FD03C0DD24CC2409C08DE289831095E8
:1007E00001951F4FDD24D394CC24C394C80106C0C7
:1007F0006AE070E00E94B408CB01D3940097C1F77F
:1008000026C0C901880F991F53E0220F331F5A9544
:10081000E1F7280F391F4F5F842F90E08617970765
:1008200084F3C801B9010E94A008EA0DFB1D862FC0
:1008300090E0AC01429FC001439F900D529F900DEC
:100840001124081B190B605D6083C39409C0ED2C53
:10085000FF240894E108F1085E010894A11CB11C72
:10086000CD1448F421E030E040E0EC2DF0E0B70199
:100870006E1B7F0BD1CFCE010196FC01ED0DF11D5A
:1008800010820E94DB05C05CDF4F0FB6F894DEBF1C
:100890000FBECDBFCF91DF911F910F91FF90EF90D1
:1008A000DF90CF90BF90AF9008954F925F926F927C
:1008B0007F928F929F92AF92BF92CF92DF92EF92F0
:1008C000FF920F931F93DF93CF93CDB7DEB7C0583E
:1008D000D0400FB6F894DEBF0FBECDBF60E875E222
:1008E00080E090E00E94B00580E065E041E00E9479
:1008F000E7070E94F606B0E96B2EB1E07B2E4E01B1
:100900000894811C911C80E065E041E00E949407FE
:1009100080E091E00E94DB0585E191E00E94DB052B
:100920000E94D0058823E1F388EE93E0F30131972C
:10093000F1F70197D9F70E94D005E82E88EE93E0F1
:10094000F3013197F1F70197D9F7C4010E9413061B
:10095000C4016E2D0E949B03582E492E80E065E055
:1009600040E00E94940788E191E00E94DB0585E168
:1009700091E00E94DB050E94D0058823E1F388EE18
:1009800093E0F3013197F1F70197D9F70E94D00571
:10099000E82E88EE93E0F3013197F1F70197D9F74C
:1009A000C4010E941306C4016E2D0E949B03B82E41
:1009B000A92E8DE291E00E94DB0585E191E00E9485
:1009C000DB050E94D0058823E1F388EE93E0F30174
:1009D0003197F1F70197D9F70E94D005E82E88EEFC
:1009E00093E0F3013197F1F70197D9F7C4010E9421
:1009F0001306C4016E2D0E949B03D82EC92E87E4D6
:100A000091E00E94DB05852D942D0E94D4038BE597
:100A100091E00E94DB058B2D9A2D0E94D40387E67E
:100A200091E00E94DB058D2D9C2D0E94D40385E171
:100A300091E00E94DB050E943F077B018C018DE65F
:100A400091E00E94DB05852D942D6B2D7A2D4D2D87
:100A50005C2D0E943A080E94D4038CE791E00E942A
:100A6000DB050E943F07DC01CB018E199F090E9424
:100A7000D4038FE891E00E94DB050E943F077B01D1
:100A80008C0184E991E00E94DB05852D942D6B2D6E
:100A90007A2D4D2D5C2D21E00E9447080E94D40341
:100AA0008CE791E00E94DB050E943F07DC01CB014F
:100AB0008E199F090E94D4038FE891E00E94DB0504
:100AC0000E943F077B018C0180EA91E00E94DB05D8
:100AD000852D942D6B2D7A2D4D2D5C2D22E00E94BD
:100AE00047080E94D4038CE791E00E94DB050E9436
:100AF0003F07DC01CB018E199F090E94D4038FE8C8
:100B000091E00E94DB05FFCE1F920F920FB60F926D
:100B100011248F939F93EF93FF938091B60290914E
:100B2000C600E82FF0E0E554FD4F90838F5F80937F
:100B3000B6028091B6028F738093B6028091B402A0
:100B4000803428F48091B4028F5F8093B402FF91C7
:100B5000EF919F918F910F900FBE0F901F9018955E
:100B60009B01AC0180E28093C00088E98093C100C2
:100B700086E08093C20084E0220F331F441F551F7C
:100B80008A95D1F760E074E284EF90E00E94C70894
:100B9000215030403093C5002093C40078940895CC
:100BA0008091B4020895982F8091C00085FFFCCFFA
:100BB0009093C6000895FC0107C08091C00085FF96
:100BC000FCCF9093C600319690819923B1F7089598
:100BD0009C01F9012F5F3F4F9491992339F0809147
:100BE000C00085FFFCCF9093C600F3CF089580919D
:100BF000B402882311F4EFEF14C08091B502E82FFE
:100C0000F0E0E554FD4FE0818F5F8093B502809165
:100C1000B5028F738093B5028091B40281508093A6
:100C2000B4028E2F0895EF92FF921F93CF93DF931C
:100C30007C0110E006C00E94F705CE0DDF1D888301
:100C40001F5F8091B402C12FD0E08823A1F7CE0DA1
:100C5000DF1D1882812FDF91CF911F91FF90EF90C0
:100C600008958091B402882311F48FEF0895E091E4
:100C7000B502F0E0E554FD4F80810895EF92FF92B8
:100C80000F931F93CF93DF930E943F077B018C014B
:100C900002C00E94F7058091B402882341F0E091E0
:100CA000B502F0E0E554FD4F8081803364F480911B
:100CB000B4028823A1F0E091B502F0E0E554FD4FC5
:100CC00080818D3261F48091B402882399F0E091A3
:100CD000B502F0E0E554FD4F80818A335CF00E945C
:100CE0003F076E197F09800B910B6059714080405E
:100CF000904078F28091B402882361F0E091B502CF
:100D0000F0E0E554FD4F80818D3221F40E94F7051B
:100D10001FEF01C011E0C0E0D0E012C00E94F70553
:100D20009E0143E0220F331F4A95E1F7CC0FDD1FF0
:100D3000C20FD31FE097992787FD9095C80FD91F41
:100D40008091B4028823A1F0E091B502F0E0E5546F
:100D5000FD4F8081803364F08091B4028823F1F2EA
:100D6000E091B502F0E0E554FD4F80818A33B4F2A2
:100D7000812F992787FD9095C89F9001C99F300DBD
:100D8000D89F300D1124C901DF91CF911F910F9190
:100D9000FF90EF9008951F920F920FB60F921124BB
:100DA0008F939F93AF93BF93DF93CF93CDB7DEB76E
:100DB0008091B7029091B802A091B902B091BA02A5
:100DC0000196A11DB11D8093B7029093B802A09324
:100DD000B902B093BA02CF91DF91BF91AF919F91C9
:100DE0008F910F900FBE0F901F901895DF93CF93A8
:100DF00000D000D00F92CDB7DEB7E4E4F0E082E09F
:100E0000808380E89EE3A0E0B0E08A839B83AC838C
:100E1000BD8381E0898313C08A819B81AC81BD81C0
:100E2000689412F8B695A795979587951694D1F77B
:100E30008A839B83AC83BD8389818F5F89838A8109
:100E40009B81AC81BD818F3F9105A105B10509F062
:100E500018F7E5E4F0E089818083E7E4F0E08A8137
:100E600081508083EEE6F0E082E0808378940F90FA
:100E70000F900F900F900F90CF91DF910895DF9317
:100E8000CF9300D000D0CDB7DEB7F8948091B702F1
:100E90009091B802A091B902B091BA0289839A8365
:100EA000AB83BC83789489819A81AB81BC81BC017E
:100EB000CD010F900F900F900F90CF91DF9108957B
:100EC000DF93CF93CDB7DEB728970FB6F894DEBF88
:100ED0000FBECDBF6D837E838F8398870E943F07AF
:100EE000DC01CB0189839A83AB83BC830E943F07DB
:100EF0009B01AC0189819A81AB81BC81281B390B94
:100F00004A0B5B0B8D819E81AF81B885281739070D
:100F10004A075B0758F328960FB6F894DEBF0FBE5A
:100F2000CDBFCF91DF9108958130F9F0813020F06D
:100F3000823009F04BC032C0413059F425B181E014
:100F400090E002C0880F991F6A95E2F7282B25B917
:100F5000089525B181E090E002C0880F991F6A953D
:100F6000E2F78095822385B90895413059F428B17C
:100F700081E090E002C0880F991F6A95E2F7282B64
:100F800028B9089528B181E090E002C0880F991F28
:100F90006A95E2F78095822388B90895413059F423
:100FA0002BB181E090E002C0880F991F6A95E2F7AB
:100FB000282B2BB908952BB181E090E002C0880F57
:100FC000991F6A95E2F7809582238BB90895813045
:100FD000F9F0813020F0823009F04BC032C041304E
:100FE00059F424B181E090E002C0880F991F6A95FE
:100FF000E2F7282B24B9089524B181E090E002C0E3
:10100000880F991F6A95E2F78095822384B9089525
:10101000413059F427B181E090E002C0880F991F58
:101020006A95E2F7282B27B9089527B181E090E06F
:1010300002C0880F991F6A95E2F78095822387B9CD
:101040000895413059F42AB181E090E002C0880F40
:10105000991F6A95E2F7282B2AB908952AB181E0F1
:1010600090E002C0880F991F6A95E2F7809582236D
:101070008AB9089541505040469F9001479F300DD6
:10108000569F300D1124280F391FC9010895AF92C2
:10109000BF92CF92DF92EF92FF920F931F93CF9365
:1010A000DF93EC015B016A01213081F49C0160E077
:1010B00070E040E005C0620F731F2A0D3B1D4F5FBB
:1010C000842F90E08C159D05B4F32EC0223019F0CA
:1010D00060E070E029C0CA0162E070E00E94B408DC
:1010E000882777FD8095982F0E944D017B018C0108
:1010F0000894C108D108CA9CB001CB9C700DDA9C41
:10110000700D1124CC0FDD1F6C0F7D1F882777FD1C
:101110008095982F0E944D019B01AC01C801B70139
:101120000E9453000E94AB01CB01DF91CF911F9130
:101130000F91FF90EF90DF90CF90BF90AF90089508
:10114000AA1BBB1B51E107C0AA1FBB1FA617B707ED
:1011500010F0A61BB70B881F991F5A95A9F7809509
:101160009095BC01CD01089597FB092E07260AD062
:1011700077FD04D0E5DF06D000201AF47095619564
:101180007F4F0895F6F7909581959F4F0895A1E2BE
:101190001A2EAA1BBB1BFD010DC0AA1FBB1FEE1FF1
:1011A000FF1FA217B307E407F50720F0A21BB30B3C
:1011B000E40BF50B661F771F881F991F1A9469F7B8
:1011C00060957095809590959B01AC01BD01CF0114
:1011D00008952F923F924F925F926F927F928F92DB
:1011E0009F92AF92BF92CF92DF92EF92FF920F93B6
:1011F0001F93CF93DF93CDB7DEB7CA1BDB0B0FB6C0
:10120000F894DEBF0FBECDBF09942A88398848887C
:101210005F846E847D848C849B84AA84B984C88412
:10122000DF80EE80FD800C811B81AA81B981CE0F09
:10123000D11D0FB6F894DEBF0FBECDBFED010895EE
:04124000F894FFCF50
:10124400556E6573697465207072766920656C6586
:101254006D656E74000D0A00556E657369746520C2
:1012640072617A6C696B75206E697A6100556E657E
:1012740073697465207472617A656E6920636C6148
:101284006E206E697A61005072766920656C656DB6
:10129400656E74206E697A613A20002C2072617A3E
:1012A4006C696B613A20002C206E3A20006E2D741C
:1012B4006920656C656D656E743A20002C2070722F
:1012C4006F74656B6C6F207672656D653A20006D86
:1012D400730D0A0073756D615F697465723A20005D
:1012E40073756D615F666F726D3A200000000000D7
:1012F40000000000000102020303030304040404C9
:10130400040404040505050505050505050505058D
:10131400050505050606060606060606060606066D
:101324000606060606060606060606060606060659
:10133400060606060707070707070707070707073D
:101344000707070707070707070707070707070729
:101354000707070707070707070707070707070719
:101364000707070707070707070707070707070709
:1013740007070707080808080808080808080808ED
:1013840008080808080808080808080808080808D9
:1013940008080808080808080808080808080808C9
:1013A40008080808080808080808080808080808B9
:1013B40008080808080808080808080808080808A9
:1013C4000808080808080808080808080808080899
:1013D4000808080808080808080808080808080889
:1013E4000808080808080808080808080808080879
:0413F40008080808D5
:00000001FF
